:030000000201A753
:0100030032CA
:03000B000200FEF2
:0100130032BA
:01001B0032B2
:0100230032AA
:03002B00020127A8
:10002E00C00078B10000D8FCD00022C000C0017919
:10003E002D78A6D8FED9FADAF6D001D00022D296C3
:10004E0012002EC29622A2E79286A2E69287A2E51F
:10005E009290A2E4929112004C12002EA2E392868C
:10006E00A2E29287A2E19290A2E0929112004C221B
:10007E00D2A0020054C2A0020054C296C29774339A
:10008E0012008374331200837432120083742812A8
:10009E000083740C1200837401120083C0027A0272
:1000AE00120039D00222E493600612007EA380F67D
:1000BE002244404480020083C0E0E8C4540F443020
:1000CE0012007EE8540F443012007ED0E022787881
:1000DE003A78783A787820787800438E04E5895417
:1000EE00F04401F589758CA9758AD6D2A9D28C22D5
:1000FE00C28C758CA9758AD6D28CB2A132438E1061
:10010E0075C80075CFA275CE4075CBA275CA40E4F6
:10011E00F530F531D2ADD2CA22C2CFC0E0C0D00583
:10012E0030E53070020531E530B4F419E531B40133
:10013E0014D200B28CD2A1E4F530F531E5362401AB
:10014E008000D4F536D0D0D0E032E530B4F419E5E5
:10015E0031B40114D200B28CD2A1E4F530F531E500
:10016E003424018000D4F534D0D0D0E0327597DE3F
:10017E007597AD75817F75E10075E20075E3407589
:10018E00A60275A90075A900E5A930E7FB1200E8E3
:10019E0012010B120088D2AF2212017BC0E0740153
:1001AE00141200C1D0E0C083C082C0E09000DC1207
:1001BE0000B4D0E0D082D083D20075320075340006
:1001CE0075360020B720C0027A32120039D00220D4
:1001DE00B71430B7FDC2CAE4F530F531F532F53457
:1001EE00F536D2CA80033000DAC200C0E0740114C2
:1001FE001200C1D0E0C000A8321200C6D000C0E08C
:10020E007404141200C1D0E0C000A8341200C6D08D
:10021E0000C0E07407141200C1D0E0C000A836126E
:09022E0000C6D000E53402017B9A
:00000001FF
