:03000000020218E1
:0100030032CA
:03000B0002011CD3
:0100130032BA
:01001B0032B2
:0100230032AA
:09002B00020145414D00504D0059
:10003400C00078B10000D8FCD00022C000C0017913
:100044002D78A6D8FED9FADAF6D001D00022D296BD
:10005400120034C29622A2E79286A2E69287A2E513
:100064009290A2E49291120052120034A2E392867A
:10007400A2E29287A2E19290A2E09291120052220F
:10008400D2A002005AC2A002005AC296C297743388
:100094001200897433120089743212008974281290
:1000A4000089740C1200897401120089C0027A025A
:1000B40012003FD00222E4936006120084A380F66B
:1000C4002244404480020089C0E0E8C4540F443014
:1000D400120084E8540F4430120084D0E0223C2DF6
:1000E4000078783A78783A78782078780020200078
:1000F400C0027A7F12003FD002C0027A7F12003F12
:10010400D002438E04E58954F04401F589758CA925
:10011400758AD6D2A9D28C22C28C758CA9758AD63E
:10012400D28CB2A132438E1075C80075CFA275CEA1
:100134004075CBA275CA40E4F530F531D2ADD2CAD0
:1001440022C2CFC0E0C0D00530E53070020531E5F1
:1001540030B4F417E531B40112D200B28CE4F530B6
:10016400F531E53624018000D4F536D0D0D0E03224
:100174007597DE7597AD75817F75E10075E2007541
:10018400E34075A60275A90075A900E5A930E7FB4F
:1001940012012912008ED2AF22E543B4010BE4E52B
:1001A4003424018000D4F53422E4E53B2401D4F561
:1001B4003BC0E07404141200C5D0E0C000A83B1298
:1001C40000CCD00022E543B40112E4E532B41204B9
:1001D4007401800424018000D4F53222E4E539B4AA
:1001E40012197401D4F539C0E07401141200C5D099
:1001F400E0C000A8391200CCD000222401D4F53983
:10020400C0E07401141200C5D0E0C000A839120087
:10021400CCD0002212017402021E75321275340011
:10022400753600753912753B00753D00020233C006
:10023400E07401141200C7D0E0C083C082C0E09013
:1002440000E51200BAD0E0D082D083C0E0740F146D
:100254001200C7D0E0C083C082C0E09000E2120068
:10026400BAD0E0D082D083C0E07401141200C5D0AB
:10027400E0C083C082C0E09000E51200BAD0E0D0B4
:1002840082D083C0E0740A141200C7D0E0D2007593
:100294004200754400C0E0740A141200C7D0E0C0E4
:1002A40083C082C0E090002E1200BAD0E0D082D089
:1002B40083C0E0740A141200C5D0E0C083C082C0B9
:1002C400E090002E1200BAD0E0D082D083754001B5
:1002D40075410175430120B753C0027A3212003FC1
:1002E400D00220B74730B7FDC2CAE4F530F531F586
:1002F40036D2CAE532B412370203DC020333E532E4
:10030400B539D3E534B53BCE1200F4754200020290
:10031400DA0204761201C9020476E4E534B459061B
:10032400E4F53402047612019D0204763000A7300D
:10033400B2E230A6E530A39E3081163083092080D6
:1003440003308053020476E47400F544F54202025B
:10035400DAE543B40044C0E0740F141200C7D0E0DF
:10036400C083C082C0E09000E21200BAD0E0D08224
:10037400D083C0E0740F141200C5D0E0C083C082E3
:10038400C0E09000F11200BAD0E0D082D08375436F
:10039400017542010204760203DCC0E0740F1412FA
:1003A40000C7D0E0C083C082C0E09000F11200BA60
:1003B400D0E0D082D083C0E0740F141200C5D0E026
:1003C400C083C082C0E09000E21200BAD0E0D082C4
:1003D400D083754300020476E543B40149E540B493
:1003E4000022C0E0740A141200C7D0E0C083C082A7
:1003F400C0E090002E1200BAD0E0D082D0837540C5
:1004040001020476C0E0740A141200C7D0E0C0836D
:10041400C082C0E09000311200BAD0E0D082D08314
:10042400754000020476E541B40022C0E0740A1469
:100434001200C5D0E0C083C082C0E090002E12003C
:10044400BAD0E0D082D083754101020476C0E07452
:100454000A141200C5D0E0C083C082C0E09000310D
:100464001200BAD0E0D082D0837541000204760233
:100474000302C200C0E07407141200C7D0E0C00039
:10048400A8361200CCD000C0E07404141200C7D007
:10049400E0C000A8341200CCD000C0E074011412F3
:1004A40000C7D0E0C000A8321200CCD000C0E07475
:1004B40007141200C5D0E0C000A83D1200CCD00043
:1004C400C0E07404141200C5D0E0C000A83B1200C0
:1004D400CCD000C0E07401141200C5D0E0C000A864
:1004E400391200CCD000E542B40084E536B4606A29
:1004F400E4F536C0E07407141200C7D0E0C000A8C9
:10050400361200CCD00012019DC0E0740414120015
:10051400C7D0E0C000A8341200CCD000E4E534B465
:100524006038E4F534C0E07404141200C7D0E0C0AD
:1005340000A8341200CCD0001201C9C0E074011428
:100544001200C7D0E0C000A8321200CCD000C00214
:0D0554007A3212003FD0020203330202DAB5
:00000001FF
