:0300000002027188
:0100030032CA
:03000B0002011CD3
:0100130032BA
:01001B0032B2
:0100230032AA
:09002B00020145414D00504D0059
:10003400C00078B10000D8FCD00022C000C0017913
:100044002D78A6D8FED9FADAF6D001D00022D296BD
:10005400120034C29622A2E79286A2E69287A2E513
:100064009290A2E49291120052120034A2E392867A
:10007400A2E29287A2E19290A2E09291120052220F
:10008400D2A002005AC2A002005AC296C297743388
:100094001200897433120089743212008974281290
:1000A4000089740C1200897401120089C0027A025A
:1000B40012003FD00222E4936006120084A380F66B
:1000C4002244404480020089C0E0E8C4540F443014
:1000D400120084E8540F4430120084D0E0223C2DF6
:1000E4000078783A78783A78782078780020200078
:1000F400C0027A7F12003FD002C0027A7F12003F12
:10010400D002438E04E58954F04401F589758CA925
:10011400758AD6D2A9D28C22C28C758CA9758AD63E
:10012400D28CB2A132438E1075C80075CFA275CEA1
:100134004075CBA275CA40E4F530F531D2ADD2CAD0
:1001440022C2CFC0E0C0D00530E53070020531E5F1
:1001540030B4F417E531B40112D200B28CE4F530B6
:10016400F531E53624018000D4F536D0D0D0E03224
:100174007597DE7597AD75817F75E10075E2007541
:10018400E34075A60275A90075A900E5A930E7FB4F
:1001940012012912008ED2AF22E543B4011080006F
:1001A400E4E53424018000D4F53475440022E544A8
:1001B400B400EDE4E53B2401D4F53BC0E074041441
:1001C4001200C5D0E0C000A83B1200CCD00075449A
:1001D4000022E543B4015EE4E532B4120474018004
:1001E40050B41147E540B40121C0E0740A14120070
:1001F400C7D0E0C083C082C0E09000311200BAD002
:10020400E0D082D0837540008021C0E0740A1412CB
:1002140000C7D0E0C083C082C0E090002E1200BAB4
:10022400D0E0D082D0837540018000E53224018083
:1002340000D4F53222E4E539B412197401D4F53945
:10024400C0E07401141200C5D0E0C000A839120047
:10025400CCD000222401D4F539C0E074011412007A
:10026400C5D0E0C000A8391200CCD000221201741D
:1002740002027775321275340075360075391275BD
:100284003B00753D0002028CC0E07401141200C7EB
:10029400D0E0C083C082C0E09000E51200BAD0E094
:1002A400D082D083C0E0740F141200C7D0E0C083A2
:1002B400C082C0E09000E21200BAD0E0D082D083C5
:1002C400C0E07401141200C5D0E0C083C082C0E055
:1002D4009000E51200BAD0E0D082D083C0E0740A66
:1002E400141200C7D0E0D200754200754500C0E08A
:1002F400740A141200C7D0E0C083C082C0E090002A
:100304002E1200BAD0E0D082D083C0E0740A141256
:1003140000C5D0E0C083C082C0E090002E1200BAB5
:10032400D0E0D082D08375400175410175430175D9
:10033400440020B761C0027A3212003FD00220B7D5
:100344005530B7FDC2CAC28CC2A1E4F530F531F50F
:1003540036D2CAE532B4124102045102039DE53299
:10036400B53915E534B53B10E540B5410BE545B469
:1003740000061200F40205680205680204EB12018B
:10038400D60204EBE4E534B45906E4F5340204EB94
:1003940012019D0204EB30009930831530B2DF3036
:1003A400A6E230A38D30811E20800330805E0204DB
:1003B400EBE542B401F8C28CC2A1E47401F54574C2
:1003C40000F5420204EBE543B40044C0E0740F14AA
:1003D4001200C7D0E0C083C082C0E09000E21200E7
:1003E400BAD0E0D082D083C0E0740F141200C5D01C
:1003F400E0C083C082C0E09000F11200BAD0E0D027
:1004040082D0837543017542010204EB020451C09A
:10041400E0740F141200C7D0E0C083C082C0E09023
:1004240000F11200BAD0E0D082D083C0E0740F147F
:100434001200C5D0E0C083C082C0E09000E2120088
:10044400BAD0E0D082D0837543000204EBE543B414
:100454000149E540B40022C0E0740A141200C7D078
:10046400E0C083C082C0E090002E1200BAD0E0D079
:1004740082D0837540010204EBC0E0740A141200B8
:10048400C7D0E0C083C082C0E09000311200BAD06F
:10049400E0D082D0837540000204EBE541B4002231
:1004A400C0E0740A141200C5D0E0C083C082C0E06A
:1004B40090002E1200BAD0E0D082D08375410102A0
:1004C40004EBC0E0740A141200C5D0E0C083C082FB
:1004D400C0E09000311200BAD0E0D082D0837541E0
:1004E400000204EB020362C200C0E07407141200AD
:1004F400C7D0E0C000A8361200CCD000C0E074041D
:10050400141200C7D0E0C000A8341200CCD000C040
:10051400E07401141200C7D0E0C000A8321200CC6D
:10052400D000C0E07407141200C5D0E0C000A83D9C
:100534001200CCD000C0E07404141200C5D0E0C096
:1005440000A83B1200CCD000C0E07401141200C516
:10055400D0E0C000A8391200CCD000C28CE542B46F
:1005640000828000754400E536B4606DE4F536C061
:10057400E07407141200C7D0E0C000A8361200CC03
:10058400D00075440112019DC0E07404141200C728
:10059400D0E0C000A8341200CCD000E4E534B4604C
:1005A40038E4F534C0E07404141200C7D0E0C0008D
:1005B400A8341200CCD0001201D6C0E07401141289
:1005C40000C7D0E0C000A8321200CCD000C0027A2C
:0C05D4003212003FD00202039D020336E9
:00000001FF
