:030000000201B149
:0100030032CA
:03000B00020115DA
:0100130032BA
:01001B0032B2
:0100230032AA
:09002B0002013E414D00504D0060
:10003400C00078B10000D8FCD00022C000C0017913
:100044002D78A6D8FED9FADAF6D001D00022D296BD
:10005400120034C29622A2E79286A2E69287A2E513
:100064009290A2E49291120052120034A2E392867A
:10007400A2E29287A2E19290A2E09291120052220F
:10008400D2A002005AC2A002005AC296C297743388
:100094001200897433120089743212008974281290
:1000A4000089740C1200897401120089C0027A025A
:1000B40012003FD00222E4936006120084A380F66B
:1000C4002244404480020089C0E0E8C4540F443014
:1000D400120084E8540F4430120084D0E02278786F
:1000E4003A78783A78782078782020203C2D007867
:1000F400783A78783A787820787800438E04E589DD
:1001040054F04401F589758CA9758AD6D2A9D28C8C
:1001140022C28C758CA9758AD6D28CB2A132438E38
:100124001075C80075CFA275CE4075CBA275CA40B4
:10013400E4F530F531D2ADD2CA22C2CFC0E0C0D08E
:100144000530E53070020531E530B4F419E531B419
:100154000114D200B28CD2A1E4F530F531E5362495
:10016400018000D4F536D0D0D0E0327597DE759793
:10017400AD75817F75E10075E20075E34075A602F7
:1001840075A90075A900E5A930E7FB1200FF12016B
:100194002212008ED2AF22E4E53424018000D4F58B
:1001A4003422E4E53224018000D4F5322212016FB6
:1001B400C0E07401141200C7D0E0C083C082C0E064
:1001C4009000E21200BAD0E0D082D083C0E0740183
:1001D400141200C5D0E0C083C082C0E09000F312C6
:1001E40000BAD0E0D082D083C0E0740A141200C7F1
:1001F400D0E0D200753200753400753600753900D0
:10020400753B00753D00C0E0740A141200C7D0E0CD
:10021400C083C082C0E090002E1200BAD0E0D08229
:10022400D083C0E0740A141200C5D0E0C083C08239
:10023400C0E090002E1200BAD0E0D082D083754086
:100244000120B728C0027A3212003FD00220B71C26
:1002540030B7FDC2CAE4F530F531F536D2CA800FA5
:100264001201A60202C912019B0202C93000D23057
:10027400B2EE30A6F130A3C920804A308000E540B8
:10028400B40021C0E0740A141200C7D0E0C083C0D7
:1002940082C0E090002E1200BAD0E0D082D08375E4
:1002A40040018021C0E0740A141200C7D0E0C0836A
:1002B400C082C0E09000311200BAD0E0D082D08376
:1002C4007540008000C200C0E07407141200C7D05B
:1002D400E0C000A8361200CCD000C0E074041412B0
:1002E40000C7D0E0C000A8341200CCD000C0E07435
:1002F40001141200C7D0E0C000A8321200CCD00014
:10030400C0E07407141200C5D0E0C000A83D12007C
:10031400CCD000C0E07404141200C5D0E0C000A822
:100324003B1200CCD000C0E07401141200C5D0E030
:10033400C000A8391200CCD000E536B46054E4F50E
:1003440036C0E07407141200C7D0E0C000A836120B
:1003540000CCD00012019BC0E07404141200C7D07A
:10036400E0C000A8341200CCD000E4E534B460222C
:100374001201A6C0E07401141200C7D0E0C000A8A6
:10038400321200CCD000C0027A3212003FD00202F6
:050394000273020245A6
:00000001FF
