:030000000201E812
:0100030032CA
:03000B0002010AE5
:0100130032BA
:01001B0032B2
:0100230032AA
:09002B00020133414D00504D006B
:10003400C00078B10000D8FCD00022C000C0017913
:100044002D78A6D8FED9FADAF6D001D00022D296BD
:10005400120034C29622A2E79286A2E69287A2E513
:100064009290A2E49291120052120034A2E392867A
:10007400A2E29287A2E19290A2E09291120052220F
:10008400D2A002005AC2A002005AC296C297743388
:100094001200897433120089743212008974281290
:1000A4000089740C1200897401120089C0027A025A
:1000B40012003FD00222E4936006120084A380F66B
:1000C4002244404480020089C0E0E8C4540F443014
:1000D400120084E8540F4430120084D0E0223C2DF6
:1000E4000078783A78783A78782078780020200078
:1000F400438E04E58954F04401F589758CA9758A09
:10010400D6D2A9D28C22C28C758CA9758AD6D28CEF
:10011400B2A132438E1075C80075CFA275CE40755A
:10012400CBA275CA40E4F530F531D2ADD2CA22C2B1
:10013400CFC0E0C0D00530E53070020531E530B401
:10014400F419E531B40114D200B28CD2A1E4F53033
:10015400F531E53624018000D4F536D0D0D0E03234
:100164007597DE7597AD75817F75E10075E2007551
:10017400E34075A60275A90075A900E5A930E7FB5F
:100184001200F412011712008ED2AF22E542B4011C
:100194000BE4E53424018000D4F53422E4E53B2467
:1001A40001D4F53BC0E07404141200C5D0E0C000D3
:1001B400A83B1200CCD00022E542B4010BE4E532A6
:1001C40024018000D4F53222E4E5392401D4F53940
:1001D400C0E07401141200C5D0E0C000A8391200B8
:1001E400CCD00022120164C0E07401141200C7D004
:1001F400E0C083C082C0E09000E51200BAD0E0D035
:1002040082D083C0E0740F141200C7D0E0C083C052
:1002140082C0E09000E21200BAD0E0D082D083C065
:10022400E07401141200C5D0E0C083C082C0E09025
:1002340000E51200BAD0E0D082D083C0E0740A1482
:100244001200C7D0E0D20075320075340075360054
:10025400753900753B00753D00C0E0740A14120046
:10026400C7D0E0C083C082C0E090002E1200BAD094
:10027400E0D082D083C0E0740A141200C5D0E0C07C
:1002840083C082C0E090002E1200BAD0E0D082D0A9
:100294008375400175410175420120B728C0027A77
:1002A4003212003FD00220B71C30B7FDC2CAE4F5B9
:1002B40030F531F536D2CA800F1201BC0203FC12AC
:1002C40001900203FC3000D230B2EE30A6F130A32C
:1002D400C93081092080033080460203FCE542B422
:1002E4000041C0E0740F141200C7D0E0C083C08284
:1002F400C0E09000E21200BAD0E0D082D083C0E027
:10030400740F141200C5D0E0C083C082C0E0900016
:10031400F11200BAD0E0D082D0837542010203FC0E
:10032400020365C0E0740F141200C7D0E0C083C09C
:1003340082C0E09000F11200BAD0E0D082D083C035
:10034400E0740F141200C5D0E0C083C082C0E090F6
:1003540000E21200BAD0E0D082D0837542000203DA
:10036400FCE542B40149E540B40022C0E0740A143B
:100374001200C7D0E0C083C082C0E090002E1200FB
:10038400BAD0E0D082D0837540010203FCC0E0748F
:100394000A141200C7D0E0C083C082C0E0900031CC
:1003A4001200BAD0E0D082D0837540000203FCE58D
:1003B40041B40022C0E0740A141200C5D0E0C08326
:1003C400C082C0E090002E1200BAD0E0D082D08368
:1003D4007541010203FCC0E0740A141200C5D0E0A8
:1003E400C083C082C0E09000311200BAD0E0D08255
:1003F400D0837541000203FCC200C0E074071412EC
:1004040000C7D0E0C000A8361200CCD000C0E07411
:1004140004141200C7D0E0C000A8341200CCD000ED
:10042400C0E07401141200C7D0E0C000A83212006A
:10043400CCD000C0E07407141200C5D0E0C000A8FE
:100444003D1200CCD000C0E07404141200C5D0E00A
:10045400C000A83B1200CCD000C0E074011412000C
:10046400C5D0E0C000A8391200CCD000E536B46095
:100474006AE4F536C0E07407141200C7D0E0C00087
:10048400A8361200CCD000120190C0E074041412FB
:1004940000C7D0E0C000A8341200CCD000E4E5349A
:1004A400B46038E4F534C0E07404141200C7D0E03A
:1004B400C000A8341200CCD0001201BCC0E074010A
:1004C400141200C7D0E0C000A8321200CCD000C083
:0E04D400027A3212003FD0020202CC02029ED7
:00000001FF
