:0300000002018476
:0100030032CA
:03000B000200FEF2
:0100130032BA
:01001B0032B2
:0100230032AA
:03002B00020127A8
:10002E00C00078B10000D8FCD00022C000C0017919
:10003E002D78A6D8FED9FADAF6D001D00022D296C3
:10004E0012002EC29622A2E79286A2E69287A2E51F
:10005E009290A2E4929112004C12002EA2E392868C
:10006E00A2E29287A2E19290A2E0929112004C221B
:10007E00D2A0020054C2A0020054C296C29774339A
:10008E0012008374331200837432120083742812A8
:10009E000083740C1200837401120083C0027A0272
:1000AE00120039D00222E493600612007EA380F67D
:1000BE002244404480020083C0E0E8C4540F443020
:1000CE0012007EE8540F443012007ED0E022787881
:1000DE003A78783A787820787800438E04E5895417
:1000EE00F04401F589758CA9758AD6D2A9D28C22D5
:1000FE00C28C758CA9758AD6D28CB2A132438E1061
:10010E0075C80075CFA275CE4075CBA275CA40E4F6
:10011E00F530F531D2ADD2CA22C2CFC0E0C0D00583
:10012E0030E53070020531E530B4F419E531B40133
:10013E0014D200B28CD2A1E4F530F531E5322401AF
:10014E008000D4F532D0D0D0E0327597DE7597AD01
:10015E0075817F75E10075E20075E34075A6027545
:10016E00A90075A900E5A930E7FB1200E812010B02
:10017E00120088D2AF22120158C0E074011412008E
:10018E00C1D0E0C083C082C0E09000DC1200B4D0C9
:10019E00E0D082D083D20075320020B71CC0027A24
:1001AE0032120039D00220B71030B7FDC2CAE4F5C2
:1001BE0030F531F532D2CA80033000DEC200C0E025
:1001CE007407141200BFD0E0C000A8321200C6D0CF
:0401DE00000201A872
:00000001FF
