:030000000201A654
:0100030032CA
:03000B0002010AE5
:0100130032BA
:01001B0032B2
:0100230032AA
:09002B00020133414D00504D006B
:10003400C00078B10000D8FCD00022C000C0017913
:100044002D78A6D8FED9FADAF6D001D00022D296BD
:10005400120034C29622A2E79286A2E69287A2E513
:100064009290A2E49291120052120034A2E392867A
:10007400A2E29287A2E19290A2E09291120052220F
:10008400D2A002005AC2A002005AC296C297743388
:100094001200897433120089743212008974281290
:1000A4000089740C1200897401120089C0027A025A
:1000B40012003FD00222E4936006120084A380F66B
:1000C4002244404480020089C0E0E8C4540F443014
:1000D400120084E8540F4430120084D0E0223C2DF6
:1000E4000078783A78783A78782078780020200078
:1000F400438E04E58954F04401F589758CA9758A09
:10010400D6D2A9D28C22C28C758CA9758AD6D28CEF
:10011400B2A132438E1075C80075CFA275CE40755A
:10012400CBA275CA40E4F530F531D2ADD2CA22C2B1
:10013400CFC0E0C0D00530E53070020531E530B401
:10014400F419E531B40114D200B28CD2A1E4F53033
:10015400F531E53624018000D4F536D0D0D0E03234
:100164007597DE7597AD75817F75E10075E2007551
:10017400E34075A60275A90075A900E5A930E7FB5F
:100184001200F412011712008ED2AF22E4E53424D7
:10019400018000D4F53422E4E53224018000D4F552
:1001A4003222120164C0E07401141200C7D0E0C00E
:1001B40083C082C0E09000E51200BAD0E0D082D0C3
:1001C40083C0E0740F141200C7D0E0C083C082C0A3
:1001D400E09000E21200BAD0E0D082D083C0E07494
:1001E40001141200C5D0E0C083C082C0E09000E5D5
:1001F4001200BAD0E0D082D083C0E0740A14120096
:10020400C7D0E0D2007532007534007536007539F8
:1002140000753B00753D00C0E0740A141200C7D09D
:10022400E0C083C082C0E090002E1200BAD0E0D0BB
:1002340082D083C0E0740A141200C5D0E0C083C029
:1002440082C0E090002E1200BAD0E0D082D0837534
:10025400400175410120B728C0027A3212003FD014
:100264000220B71C30B7FDC2CAE4F530F531F536CB
:10027400D2CA800F12019B02036712019002036726
:100284003000D230B2EE30A6F130A3C9308109205B
:100294008003308046020367E541B40041C0E07446
:1002A4000F141200C7D0E0C083C082C0E09000E207
:1002B4001200BAD0E0D082D083C0E0740F141200D0
:1002C400C5D0E0C083C082C0E09000F11200BAD073
:1002D400E0D082D083754101020367020320C0E0AD
:1002E400740F141200C7D0E0C083C082C0E0900035
:1002F400F11200BAD0E0D082D083C0E0740F14129F
:1003040000C5D0E0C083C082C0E09000E21200BA11
:10031400D0E0D082D083754100020367E540B40089
:1003240021C0E0740A141200C7D0E0C083C082C0A8
:10033400E090002E1200BAD0E0D082D08375400144
:100344008021C0E0740A141200C7D0E0C083C082C8
:10035400C0E09000311200BAD0E0D082D083754062
:10036400008000C200C0E07407141200C7D0E0C0CF
:1003740000A8361200CCD000C0E07404141200C7E8
:10038400D0E0C000A8341200CCD000C0E074011446
:100394001200C7D0E0C000A8321200CCD000C0E0E8
:1003A4007407141200C5D0E0C000A83D1200CCD0E0
:1003B40000C0E07404141200C5D0E0C000A83B12D1
:1003C40000CCD000C0E07401141200C5D0E0C0001D
:1003D400A8391200CCD000E536B46054E4F536C038
:1003E400E07407141200C7D0E0C000A8361200CC95
:1003F400D000120190C0E07404141200C7D0E0C011
:1004040000A8341200CCD000E4E534B46022120118
:100414009BC0E07401141200C7D0E0C000A83212DF
:1004240000CCD000C0027A3212003FD00202028710
:0304340002025968
:00000001FF
