:030000000201A05A
:0100030032CA
:03000B00020104EB
:0100130032BA
:01001B0032B2
:0100230032AA
:09002B0002012D414D00504D0071
:10003400C00078B10000D8FCD00022C000C0017913
:100044002D78A6D8FED9FADAF6D001D00022D296BD
:10005400120034C29622A2E79286A2E69287A2E513
:100064009290A2E49291120052120034A2E392867A
:10007400A2E29287A2E19290A2E09291120052220F
:10008400D2A002005AC2A002005AC296C297743388
:100094001200897433120089743212008974281290
:1000A4000089740C1200897401120089C0027A025A
:1000B40012003FD00222E4936006120084A380F66B
:1000C4002244404480020089C0E0E8C4540F443014
:1000D400120084E8540F4430120084D0E02278786F
:1000E4003A78783A787820787800438E04E5895411
:1000F400F04401F589758CA9758AD6D2A9D28C22CF
:10010400C28C758CA9758AD6D28CB2A132438E105A
:1001140075C80075CFA275CE4075CBA275CA40E4F0
:10012400F530F531D2ADD2CA22C2CFC0E0C0D0057D
:1001340030E53070020531E530B4F419E531B4012D
:1001440014D200B28CD2A1E4F530F531E5362401A5
:100154008000D4F536D0D0D0E0327597DE7597ADF7
:1001640075817F75E10075E20075E34075A602753F
:10017400A90075A900E5A930E7FB1200EE120111F0
:1001840012008ED2AF22E4E53424018000D4F53489
:1001940022E4E53224018000D4F5322212015EC04B
:1001A400E07401141200C7D0E0C083C082C0E090A4
:1001B40000E21200BAD0E0D082D083C0E0740A1406
:1001C4001200C7D0E0D200753200753400753600D5
:1001D400C0E0740A141200C7D0E0C083C082C0E03B
:1001E40090002E1200BAD0E0D082D0837540012056
:1001F400B71CC0027A3212003FD00220B71030B7C9
:10020400FDC2CAE4F530F531F536D2CA80033000B8
:10021400DE20804A308000E540B40021C0E0740A4A
:10022400141200C7D0E0C083C082C0E090002E1238
:1002340000BAD0E0D082D0837540018021C0E07440
:100244000A141200C7D0E0C083C082C0E09000311D
:100254001200BAD0E0D082D0837540008000C20082
:10026400C0E07407141200C7D0E0C000A836120022
:10027400CCD000C0E07404141200C7D0E0C000A8C1
:10028400341200CCD000C0E07401141200C7D0E0D6
:10029400C000A8321200CCD000E536B46048E4F5C2
:1002A40036C0E07407141200C7D0E0C000A83612AC
:1002B40000CCD00012018AC0E07404141200C7D02C
:1002C400E0C000A8341200CCD000E4E534B46016D9
:1002D400120195C0E07401141200C7D0E0C000A858
:0902E400321200CCD0000201F33B
:00000001FF
