:0300000002018E6C
:0100030032CA
:03000B00020103EC
:0100130032BA
:01001B0032B2
:0100230032AA
:03002B0002012CA3
:10002E00C00078B10000D8FCD00022C000C0017919
:10003E002D78A6D8FED9FADAF6D001D00022D296C3
:10004E0012002EC29622A2E79286A2E69287A2E51F
:10005E009290A2E4929112004C12002EA2E392868C
:10006E00A2E29287A2E19290A2E0929112004C221B
:10007E00D2A0020054C2A0020054C296C29774339A
:10008E0012008374331200837432120083742812A8
:10009E000083740C1200837401120083C0027A0272
:1000AE00120039D00222E493600612007EA380F67D
:1000BE002244404480020083C0E0E8C4540F443020
:1000CE0012007EE8540F443012007ED0E0224243EC
:1000DE00445F636F756E7465723A207878200043C2
:1000EE008E04E58954F04401F589758CAB758A64EC
:1000FE00D2A9D28C22C28C758CAB758A64D28CB28A
:10010E00A132438E1075C80075CFA275CE4075CB47
:10011E00A275CA40E4F530F531D2ADD2CA22C2CFB3
:10012E00C0E0C0D00530E53070020531E530B4F4E2
:10013E001EE531B40119D200B28CD2A1E4F530F52E
:10014E0031E532308004240180022499D4F532D076
:10015E00D0D0E0327597DE7597AD75817F75E10071
:10016E0075E20075E34075A60275A90075A900E554
:10017E00A930E7FB1200ED120110120088D2AF2257
:10018E00120162C0E07401141200C1D0E0C083C03D
:10019E0082C0E09000DC1200B4D0E0D082D083D2D6
:1001AE000075320020B71CC0027A32120039D0021C
:1001BE0020B71030B7FDC2CAE4F530F531F532D2B2
:1001CE00CA80033000DEC200C0E0740E141200C1FB
:0E01DE00D0E0C000A8321200C6D0000201B26C
:00000001FF
